:020000040800F2
:10000000005000204D0100089F010008AB010008CE
:10001000B1010008B7010008BD01000800000000A0
:10002000000000000000000000000000C301000804
:10003000CF01000800000000DB010008E701000814
:100040009D0100089D0100089D0100089D01000818
:100050009D0100089D0100089D0100089D01000808
:100060009D0100089D0100089D0100089D010008F8
:100070009D0100089D0100089D0100089D010008E8
:100080009D0100089D0100089D0100089D010008D8
:100090009D0100089D0100089D0100089D010008C8
:1000A0009D0100089D0100089D0100089D010008B8
:1000B0009D0100089D0100089D0100089D010008A8
:1000C0009D0100089D0100089D0100089D01000898
:1000D0009D0100085D0A00089D0100089D010008BF
:1000E0009D0100089D0100089D010008000000001E
:1000F0000000000000000000000000000000000000
:0C01000000000000000000005FF808F1A3
:10010C0010B5054C237833B9044B13B10448AFF345
:10011C0000800123237010BD1C0000200000000093
:10012C00F010000808B5034B1BB103490348AFF3AB
:10013C00008008BD0000000020000020F010000826
:10014C00DFF834D0002103E00C4B5B5843500431F2
:10015C000B480C4B42189A42F6D30B4A02E0002390
:10016C0042F8043B094B9A42F9D300F0ABFC00F087
:10017C0095FF00F00BF9704700500020101100089B
:10018C00000000201C0000201C000020900C00200F
:10019C00FEE780B400AF00BFBD4680BC704780B4A2
:1001AC0000AFFEE780B400AFFEE780B400AFFEE71F
:1001BC0080B400AFFEE780B400AF00BFBD4680BC8A
:1001CC00704780B400AF00BFBD4680BC704780B4A0
:1001DC0000AF00BFBD4680BC704780B400AF00BF0D
:1001EC00BD4680BC704780B400AF72B600BFBD4640
:1001FC0080BC704780B500AF084B094A5A6009496A
:10020C00064800F001FE0346002BF5D1034B1A788B
:10021C00054B1A7000F00AF8EEE700BF3C00002016
:10022C0048000020DB7A0700000C002080B582B06B
:10023C0000AF4B4B1B78013B052B00F28D8001A2CC
:10024C0052F823F0690200088102000899020008A4
:10025C005F030008ED0200082703000800F046F9D0
:10026C00404B10221A703F4B00221A813D4800F07F
:10027C00B5FE71E000F056F93A4B10221A70394B6A
:10028C0000221A81374800F0A9FE65E0354B5B6807
:10029C001B681846334B5B68191D324B1B89043B9A
:1002AC00DA0F13445B109BB201339BB21A4600F079
:1002BC0087F80346002B09D12A4B10221A70294BC0
:1002CC0000221A81274800F089FE45E0254B1322B5
:1002DC001A70244B00221A81224800F07FFE3BE06A
:1002EC00204B5B681B68184600F0BEF80346002BD9
:1002FC0009D11C4B10221A701A4B00221A81194872
:10030C0000F06CFE28E0174B11221A70154B0022DE
:10031C001A81144800F062FE1EE0124B5B681B68E9
:10032C007B607B681B683B60FFF75DFF3B6803F0FD
:10033C007043B3F1005F0ED100F016F8786800F04E
:10034C00BDFA7B6804331B683968184600F01AF84C
:10035C0001E000BF00E000BF00BF0837BD4680BD14
:10036C00000C00203C00002080B500AF00F058FAD3
:10037C0000F084FA00F066FA00F092FA00F09EF9B0
:10038C0000BF80BD81F30888004700BF80B500AF77
:10039C00034B044A5A6000F0B9FBFFF72BFFFEE752
:1003AC003C000020040C002080B582B000AF7860C7
:1003BC00786800F06DF900BF0837BD4680BD0000BD
:1003CC0080B487B000AFF860B9601346FB8001239E
:1003DC007B750023FB82FB68B3F1006F39D3FB689C
:1003EC001F4A934235D800BF1E4BDB6803F0010354
:1003FC00002BF9D11B4A1B4B1B6943F00103136102
:10040C000023FB8219E0174A164B1B6943F02003AB
:10041C001361FB8A5B00FA681344FA8A5200B968CC
:10042C000A4412881A8000BF0E4BDB6803F00103EC
:10043C00002BF9D1FB8A0133FB82FA8AFB889A42A2
:10044C00E1D3084A074B1B6923F001031361002316
:10045C007B757B7DDBB218461C37BD4680BC704774
:10046C00004000080020024080B485B000AF7860E6
:10047C000123FB737B68B3F1006F03D27B68194ACD
:10048C00934229D800BF184BDB6803F00103002B03
:10049C00F9D1154A144B1B6943F002031361124A3C
:1004AC007B685361104A104B1B6943F04003136186
:1004BC0000BF0D4BDB6803F00103002BF9D17B6807
:1004CC001B68B3F1FF3F01D10023FB73064A064BB7
:1004DC001B6923F002031361FB7B18461437BD46DE
:1004EC0080BC7047004000080020024080B483B0FC
:1004FC0000AF0123FB710A4A094B1B6943F08003CF
:10050C001361074B1B6903F08003002B01D0002300
:10051C00FB71FB7918460C37BD4680BC704700BF99
:10052C000020024080B483B000AF0123FB710A4B62
:10053C001B6903F08003002B07D0074B074A5A6056
:10054C00054B074A5A600023FB71FB7918460C37A0
:10055C00BD4680BC704700BF0020024023016745A8
:10056C00AB89EFCD80B400AF044A044B1B6843F059
:10057C001003136000BFBD4680BC704700200240D2
:10058C0080B485B000AF0346FB710123FB73FB798C
:10059C00022B0DD8094A094B1B6823F00303136087
:1005AC000649064B1A68FB7913430B600023FB7357
:1005BC00FB7B18461437BD4680BC704700200240B8
:1005CC0080B487B000AF78600023FB757B681B6834
:1005DC003B617B689B68BB607B685B68FB60FB680E
:1005EC000F2B4CD8FB68072B06D9FB68083BFB602C
:1005FC007B681B6804333B61BB68022B16D83B69D4
:10060C001B68FA6892000F2101FA02F2D2431A40D9
:10061C003B691A603B691A68FB689B000233B96836
:10062C0001FA03F31A433B691A602AE0BB68072BF3
:10063C0022D83B691B68FA6892000F2101FA02F27A
:10064C00D2431A403B691A603B691A68BB6803F0D5
:10065C000301FB689B00023301FA03F31A433B6965
:10066C001A603B691B68FA689200032101FA02F2D6
:10067C001A433B691A6004E00123FB7501E0012376
:10068C00FB75FB7D18461C37BD4680BC70470000CF
:10069C0080B483B000AF786007497B685B097A68E7
:1006AC0002F01F02012000FA02F241F8232000BFE1
:1006BC000C37BD4680BC704700E100E080B400AF51
:1006CC00174A174B1B6843F00103136000BF144B10
:1006DC001B6803F00203022BF9D11149104B5A6825
:1006EC00104B13404B600E4A0D4B1B6823F0847368
:1006FC0023F4803313600A4A094B1B6823F48023CC
:10070C001360074A064B5B6823F4FE035360044BEB
:10071C004FF41F029A6000BFBD4680BC704700BFFB
:10072C00001002400000FFF880B483B000AF00233B
:10073C007B600123FB70114A104B1B6843F4803320
:10074C0013607B6801337B600C4B1B6803F4003334
:10075C00002B03D17B68B3F5A06FF2D1074B1B685C
:10076C0003F40033002B01D00023FB70FB78DBB2C9
:10077C0018460C37BD4680BC704700BF00100240C5
:10078C0080B400AF1E4A1E4B5B6853601C4A1C4B66
:10079C005B6853601A4A1A4B5B6843F4806353607E
:1007AC00174A174B5B6823F47C135360144A144BA1
:1007BC005B6843F4E8135360114A114B1B6843F018
:1007CC008073136000BF0E4B1B6803F00073002B8B
:1007DC00F9D00B4A0A4B5B6823F003035360084AB9
:1007EC00074B5B6843F00203536000BF044B5B682C
:1007FC0003F00C03082BF9D100BFBD4680BC704739
:10080C000010024080B400AF044A044B9B6943F0D3
:10081C000403936100BFBD4680BC704700100240CA
:10082C0080B400AF064A064BDB6843F00403D36088
:10083C00034B0022DA6000BFBD4680BC704700BF8E
:10084C000010024080B400AF044A044B9B6923F0B3
:10085C000403936100BFBD4680BC7047001002408A
:10086C0080B400AF044A044B9B6943F4804393610A
:10087C0000BFBD4680BC70470010024080B400AF82
:10088C00064A064BDB6843F48043D360034B0022DB
:10089C00DA6000BFBD4680BC704700BF001002404C
:1008AC0080B400AF044A044B9B6923F480439361EA
:1008BC0000BFBD4680BC70470010024080B483B0BE
:1008CC0000AF7860BFF35F8F044A7B689360BFF31F
:1008DC004F8F00BF0C37BD4680BC704700ED00E069
:1008EC0080B400AF144B00229A81134B00221A8261
:1008FC00114B00229A82104A0F4B9B899BB243F4F6
:10090C0080539BB293810C4A0B4B1B8A9BB243F4D2
:10091C0000539BB21382084A074B9B899BB243F44A
:10092C0000739BB29381044B40F27A221A8100BF70
:10093C00BD4680BC704700BF0038014080B400AF9A
:10094C00154A154B9B899BB243F400539BB2938180
:10095C00114A114B9B899BB243F008039BB29381C4
:10096C000D4A0D4B9B899BB243F004039BB29381C0
:10097C00094A094B9B899BB243F020039BB293819C
:10098C00054A054B9B899BB243F040039BB2938174
:10099C0000BFBD4680BC70470038014080B400AF3A
:1009AC00154A154B9B899BB223F400539BB2938140
:1009BC00114A114B9B899BB223F008039BB2938184
:1009CC000D4A0D4B9B899BB223F004039BB2938180
:1009DC00094A094B9B899BB223F020039BB293815C
:1009EC00054A054B9B899BB223F040039BB2938134
:1009FC0000BFBD4680BC70470038014080B483B056
:100A0C0000AF0346FB71044BFA7992B29A8000BF97
:100A1C000C37BD4680BC70470038014080B400AF35
:100A2C00034B9B889BB2DBB21846BD4680BC70471B
:100A3C000038014080B483B000AF7860034A7B6813
:100A4C00136000BF0C37BD4680BC7047680C00209B
:100A5C0080B582B000AF0023FB71184B1B889BB292
:100A6C0003F02003002B03D0FB7943F00103FB714F
:100A7C00124B1B889BB203F04003002B03D0FB7975
:100A8C0043F00203FB710D4B1B889BB203F0010377
:100A9C00002B03D0FB7943F00403FB71084B1B685C
:100AAC00002B04D0064B1B68FA7910469847034B71
:100ABC0000221A8000BF0837BD4680BD00380140B7
:100ACC00680C002080B500AFFFF7F8FD00F006F8C9
:100ADC004FF00060FFF7F2FE00BF80BD80B582B022
:100AEC0000AF0123FB71FFF71FFE0346FB71FB797F
:100AFC00DBB2002B06D1FFF735FD0220FFF740FDDE
:100B0C00FFF73EFE00BF0837BD4680BD80B582B002
:100B1C0000AF0023FB71FFF775FEFFF7A1FE00236A
:100B2C00FB710CE0FA7913465B0013449B000B4AF3
:100B3C0013441846FFF744FDFB790133FB71FB7935
:100B4C00012BEFD9FFF7CCFE0548FFF773FF2520EB
:100B5C00FFF72AFC00BF0837BD4680BD040000200B
:100B6C00710B000880B582B000AF0346FB71FB79B6
:100B7C0003F00103002B10D0FFF750FF03461A4679
:100B8C00154B1A70154B01221A70FB7903F00403F4
:100B9C00002B02D0124B11221A70FB7903F00203C6
:100BAC00002B15D00F4B1B78DBB2012B08D10E4B51
:100BBC001B781846FFF722FF0A4B02221A7007E037
:100BCC00084B1B78DBB2032B02D1064B00221A70A8
:100BDC0000BF0837BD4680BD780C00203A000020CD
:100BEC00380000203B0000208C0C002080B485B025
:100BFC0000AF0023FB6000237B8100233B8100239B
:100C0C00FB807B4B5B683B607A4B01221A70794B03
:100C1C001B78DBB2012B08D1774B1B68FA689A4220
:100C2C000CD3744B02221A7008E0744B1B68FA68E0
:100C3C009A4203D36F4B11221A70D4E0704B1B787D
:100C4C00DBB2012B40F0CB800023FB606C4B00220D
:100C5C001A70684B1B78DBB2013B0C2B00F2B58091
:100C6C0001A252F823F000BFA90C0008D70D000810
:100C7C00BB0C0008D70D0008CB0C0008D70D0008E2
:100C8C00DD0C0008D70D00080D0D0008D70D00086D
:100C9C00330D0008D70D0008450D0008594B1B7883
:100CAC00252B40F09980534B03221A7094E0554B3E
:100CBC001A784F4B1A704F4B05221A708FE0514B1C
:100CCC001B789AB24A4B5A804A4B07221A7086E01C
:100CDC00474B5B881AB24B4B1B781B021BB213435E
:100CEC001BB29AB2424B5A80414B5B88002B03D10A
:100CFC00404B0B221A7072E03E4B09221A706EE0C8
:100D0C00404B1A783B681A703B6801333B607B8917
:100D1C0001337B81364B5B887A899A425ED3354BA3
:100D2C000B221A705AE0374B1B789AB2304B1A814F
:100D3C00304B0D221A7052E02D4B1B891AB2314BDD
:100D4C001B781B021BB213431BB29AB2284B1A819D
:100D5C00284B0F221A70264B5B683B6000233B81AB
:100D6C000BE03B681B789AB2FB881344FB803B6812
:100D7C0001333B603B8901333B811D4B5B883A89D6
:100D8C009A42EED31A4B1B789AB2FB881344FB8021
:100D9C00174B5B88DBB29AB2FB881344FB80144B75
:100DAC005B881B0A9BB2DBB29AB2FB881344FB80B4
:100DBC000F4B1B89FA889A4203D10E4B12221A70E0
:100DCC0011E00C4B11221A700DE00A4B11221A7013
:100DDC000B4B00221A7006E000BF00E000BFFB685E
:100DEC000133FB6013E71437BD4680BC704700BF6E
:100DFC006C0C002038000020880C00200000002023
:100E0C003A000020780C002080B582B000AF7860EA
:100E1C0039607B685B68124A5360124A3B68136006
:100E2C00FFF78CFDFFF7E2FEFFF7B8FD0E4B1B78CA
:100E3C00DBB2122B0CD10C4B00221A70084B1A7817
:100E4C007B681A70064B5A887B681A81002303E072
:100E5C00054B00221A70012318460837BD4680BD89
:100E6C006C0C0020880C00203800002080B584B069
:100E7C0000AF0023FB6000237B81534B5B687B60DE
:100E8C002520FFF7BBFD514B04221A70504B022258
:100E9C001A70504B1B68FA689A4203D34B4B1122C1
:100EAC001A708EE04A4B1B78DBB2022B7CD10023EC
:100EBC00FB60474B01221A70444B1B78DBB2043B9E
:100ECC000C2B6CD801A252F823F000BF0D0F0008B8
:100EDC00AB0F00081D0F0008AB0F00082F0F000808
:100EEC00AB0F0008550F0008AB0F00087B0F000874
:100EFC00AB0F00088D0F0008AB0F0008A30F000804
:100F0C00314B1A78344B1A70304B06221A704BE066
:100F1C002D4B5B88DAB2304B1A702C4B08221A70AE
:100F2C0042E0294B5B881B0A9BB2DAB22A4B1A703F
:100F3C00254B5B88002B03D1244B0C221A7033E019
:100F4C00224B0A221A702FE07B681A78224B1A70F7
:100F5C007B6801337B607B8901337B811A4B5B8817
:100F6C007A899A421FD3194B0C221A701BE0164B2C
:100F7C001B89DAB2184B1A70144B0E221A7013E03C
:100F8C00114B1B891B0A9BB2DAB2134B1A700F4B15
:100F9C0010221A7008E00E4B03221A7004E00B4B5F
:100FAC0011221A700DE000BF094B1B78DBB2002B2D
:100FBC0003D1064B12221A7003E0FB680133FB606D
:100FCC0067E71037BD4680BD7C0C0020390000203F
:100FDC003B000020000000208C0C002080B584B069
:100FEC0000AF78600023FB810023BB817B685B68CA
:100FFC00BB607B685B68274A53607B681A78254B1B
:10100C001A707B681A89234B5A800023FB810BE0F2
:10101C00BB681B789AB2BB891344BB81BB68013394
:10102C00BB60FB890133FB817B681B89FA899A427F
:10103C00EED37B681B789AB2BB891344BB817B6867
:10104C001B89DBB29AB2BB891344BB817B681B89B9
:10105C001B0A9BB2DBB29AB2BB891344BB810D4A0B
:10106C00BB891381FFF76AFCFFF700FFFFF796FCC3
:10107C00094B1B78DBB2122B04D1074B00221A70E0
:10108C00002303E0044B00221A700123184610378A
:10109C00BD4680BD7C0C00203900002070B50025B9
:1010AC000C4E0D4CA41BA410A54209D100F01AF84B
:1010BC0000250A4E0A4CA41BA410A54205D170BDF4
:1010CC0056F8253098470135EEE756F82530984705
:1010DC000135F2E708110008081100080811000892
:1010EC000C110008F8B500BFF8BC08BC9E46704750
:0C10FC00F8B500BFF8BC08BC9E46704769
:0411080031010008A9
:04110C000D010008C9
:10111000905F010000080140090000000600000087
:0C112000000801400A000000010000006F
:040000050800014DA1
:00000001FF
